{
  "_format": "hh-sol-artifact-1",
  "contractName": "CouponNFT",
  "sourceName": "contracts/CouponNFT.sol",
  "abi": [
    {
      "inputs": [],
      "stateMutability": "nonpayable",
      "type": "constructor"
    },
    {
      "inputs": [
        {
          "internalType": "address",
          "name": "sender",
          "type": "address"
        },
        {
          "internalType": "uint256",
          "name": "tokenId",
          "type": "uint256"
        },
        {
          "internalType": "address",
          "name": "owner",
          "type": "address"
        }
      ],
      "name": "ERC721IncorrectOwner",
      "type": "error"
    },
    {
      "inputs": [
        {
          "internalType": "address",
          "name": "operator",
          "type": "address"
        },
        {
          "internalType": "uint256",
          "name": "tokenId",
          "type": "uint256"
        }
      ],
      "name": "ERC721InsufficientApproval",
      "type": "error"
    },
    {
      "inputs": [
        {
          "internalType": "address",
          "name": "approver",
          "type": "address"
        }
      ],
      "name": "ERC721InvalidApprover",
      "type": "error"
    },
    {
      "inputs": [
        {
          "internalType": "address",
          "name": "operator",
          "type": "address"
        }
      ],
      "name": "ERC721InvalidOperator",
      "type": "error"
    },
    {
      "inputs": [
        {
          "internalType": "address",
          "name": "owner",
          "type": "address"
        }
      ],
      "name": "ERC721InvalidOwner",
      "type": "error"
    },
    {
      "inputs": [
        {
          "internalType": "address",
          "name": "receiver",
          "type": "address"
        }
      ],
      "name": "ERC721InvalidReceiver",
      "type": "error"
    },
    {
      "inputs": [
        {
          "internalType": "address",
          "name": "sender",
          "type": "address"
        }
      ],
      "name": "ERC721InvalidSender",
      "type": "error"
    },
    {
      "inputs": [
        {
          "internalType": "uint256",
          "name": "tokenId",
          "type": "uint256"
        }
      ],
      "name": "ERC721NonexistentToken",
      "type": "error"
    },
    {
      "inputs": [
        {
          "internalType": "address",
          "name": "owner",
          "type": "address"
        }
      ],
      "name": "OwnableInvalidOwner",
      "type": "error"
    },
    {
      "inputs": [
        {
          "internalType": "address",
          "name": "account",
          "type": "address"
        }
      ],
      "name": "OwnableUnauthorizedAccount",
      "type": "error"
    },
    {
      "anonymous": false,
      "inputs": [
        {
          "indexed": true,
          "internalType": "address",
          "name": "owner",
          "type": "address"
        },
        {
          "indexed": true,
          "internalType": "address",
          "name": "approved",
          "type": "address"
        },
        {
          "indexed": true,
          "internalType": "uint256",
          "name": "tokenId",
          "type": "uint256"
        }
      ],
      "name": "Approval",
      "type": "event"
    },
    {
      "anonymous": false,
      "inputs": [
        {
          "indexed": true,
          "internalType": "address",
          "name": "owner",
          "type": "address"
        },
        {
          "indexed": true,
          "internalType": "address",
          "name": "operator",
          "type": "address"
        },
        {
          "indexed": false,
          "internalType": "bool",
          "name": "approved",
          "type": "bool"
        }
      ],
      "name": "ApprovalForAll",
      "type": "event"
    },
    {
      "anonymous": false,
      "inputs": [
        {
          "indexed": false,
          "internalType": "uint256",
          "name": "_fromTokenId",
          "type": "uint256"
        },
        {
          "indexed": false,
          "internalType": "uint256",
          "name": "_toTokenId",
          "type": "uint256"
        }
      ],
      "name": "BatchMetadataUpdate",
      "type": "event"
    },
    {
      "anonymous": false,
      "inputs": [
        {
          "indexed": false,
          "internalType": "uint256",
          "name": "_tokenId",
          "type": "uint256"
        }
      ],
      "name": "MetadataUpdate",
      "type": "event"
    },
    {
      "anonymous": false,
      "inputs": [
        {
          "indexed": true,
          "internalType": "address",
          "name": "previousOwner",
          "type": "address"
        },
        {
          "indexed": true,
          "internalType": "address",
          "name": "newOwner",
          "type": "address"
        }
      ],
      "name": "OwnershipTransferred",
      "type": "event"
    },
    {
      "anonymous": false,
      "inputs": [
        {
          "indexed": true,
          "internalType": "address",
          "name": "from",
          "type": "address"
        },
        {
          "indexed": true,
          "internalType": "address",
          "name": "to",
          "type": "address"
        },
        {
          "indexed": true,
          "internalType": "uint256",
          "name": "tokenId",
          "type": "uint256"
        }
      ],
      "name": "Transfer",
      "type": "event"
    },
    {
      "inputs": [
        {
          "internalType": "address",
          "name": "to",
          "type": "address"
        },
        {
          "internalType": "uint256",
          "name": "tokenId",
          "type": "uint256"
        }
      ],
      "name": "approve",
      "outputs": [],
      "stateMutability": "nonpayable",
      "type": "function"
    },
    {
      "inputs": [
        {
          "internalType": "address",
          "name": "owner",
          "type": "address"
        }
      ],
      "name": "balanceOf",
      "outputs": [
        {
          "internalType": "uint256",
          "name": "",
          "type": "uint256"
        }
      ],
      "stateMutability": "view",
      "type": "function"
    },
    {
      "inputs": [
        {
          "internalType": "address",
          "name": "recipient",
          "type": "address"
        },
        {
          "internalType": "string",
          "name": "tokenURI",
          "type": "string"
        }
      ],
      "name": "createCouponNFT",
      "outputs": [
        {
          "internalType": "uint256",
          "name": "",
          "type": "uint256"
        }
      ],
      "stateMutability": "nonpayable",
      "type": "function"
    },
    {
      "inputs": [
        {
          "internalType": "uint256",
          "name": "tokenId",
          "type": "uint256"
        }
      ],
      "name": "getApproved",
      "outputs": [
        {
          "internalType": "address",
          "name": "",
          "type": "address"
        }
      ],
      "stateMutability": "view",
      "type": "function"
    },
    {
      "inputs": [
        {
          "internalType": "address",
          "name": "owner",
          "type": "address"
        },
        {
          "internalType": "address",
          "name": "operator",
          "type": "address"
        }
      ],
      "name": "isApprovedForAll",
      "outputs": [
        {
          "internalType": "bool",
          "name": "",
          "type": "bool"
        }
      ],
      "stateMutability": "view",
      "type": "function"
    },
    {
      "inputs": [],
      "name": "name",
      "outputs": [
        {
          "internalType": "string",
          "name": "",
          "type": "string"
        }
      ],
      "stateMutability": "view",
      "type": "function"
    },
    {
      "inputs": [],
      "name": "owner",
      "outputs": [
        {
          "internalType": "address",
          "name": "",
          "type": "address"
        }
      ],
      "stateMutability": "view",
      "type": "function"
    },
    {
      "inputs": [
        {
          "internalType": "uint256",
          "name": "tokenId",
          "type": "uint256"
        }
      ],
      "name": "ownerOf",
      "outputs": [
        {
          "internalType": "address",
          "name": "",
          "type": "address"
        }
      ],
      "stateMutability": "view",
      "type": "function"
    },
    {
      "inputs": [],
      "name": "renounceOwnership",
      "outputs": [],
      "stateMutability": "nonpayable",
      "type": "function"
    },
    {
      "inputs": [
        {
          "internalType": "address",
          "name": "from",
          "type": "address"
        },
        {
          "internalType": "address",
          "name": "to",
          "type": "address"
        },
        {
          "internalType": "uint256",
          "name": "tokenId",
          "type": "uint256"
        }
      ],
      "name": "safeTransferFrom",
      "outputs": [],
      "stateMutability": "nonpayable",
      "type": "function"
    },
    {
      "inputs": [
        {
          "internalType": "address",
          "name": "from",
          "type": "address"
        },
        {
          "internalType": "address",
          "name": "to",
          "type": "address"
        },
        {
          "internalType": "uint256",
          "name": "tokenId",
          "type": "uint256"
        },
        {
          "internalType": "bytes",
          "name": "data",
          "type": "bytes"
        }
      ],
      "name": "safeTransferFrom",
      "outputs": [],
      "stateMutability": "nonpayable",
      "type": "function"
    },
    {
      "inputs": [
        {
          "internalType": "address",
          "name": "operator",
          "type": "address"
        },
        {
          "internalType": "bool",
          "name": "approved",
          "type": "bool"
        }
      ],
      "name": "setApprovalForAll",
      "outputs": [],
      "stateMutability": "nonpayable",
      "type": "function"
    },
    {
      "inputs": [
        {
          "internalType": "bytes4",
          "name": "interfaceId",
          "type": "bytes4"
        }
      ],
      "name": "supportsInterface",
      "outputs": [
        {
          "internalType": "bool",
          "name": "",
          "type": "bool"
        }
      ],
      "stateMutability": "view",
      "type": "function"
    },
    {
      "inputs": [],
      "name": "symbol",
      "outputs": [
        {
          "internalType": "string",
          "name": "",
          "type": "string"
        }
      ],
      "stateMutability": "view",
      "type": "function"
    },
    {
      "inputs": [],
      "name": "tokenCounter",
      "outputs": [
        {
          "internalType": "uint256",
          "name": "",
          "type": "uint256"
        }
      ],
      "stateMutability": "view",
      "type": "function"
    },
    {
      "inputs": [
        {
          "internalType": "uint256",
          "name": "tokenId",
          "type": "uint256"
        }
      ],
      "name": "tokenURI",
      "outputs": [
        {
          "internalType": "string",
          "name": "",
          "type": "string"
        }
      ],
      "stateMutability": "view",
      "type": "function"
    },
    {
      "inputs": [
        {
          "internalType": "address",
          "name": "from",
          "type": "address"
        },
        {
          "internalType": "address",
          "name": "to",
          "type": "address"
        },
        {
          "internalType": "uint256",
          "name": "tokenId",
          "type": "uint256"
        }
      ],
      "name": "transferFrom",
      "outputs": [],
      "stateMutability": "nonpayable",
      "type": "function"
    },
    {
      "inputs": [
        {
          "internalType": "address",
          "name": "newOwner",
          "type": "address"
        }
      ],
      "name": "transferOwnership",
      "outputs": [],
      "stateMutability": "nonpayable",
      "type": "function"
    }
  ],
  "bytecode": "0x608060405234801561001057600080fd5b50336040518060400160405280600e81526020016d135bdb9ad950dbdd5c1bdb93919560921b8152506040518060400160405280600381526020016226a1a760e91b815250816000908161006491906101a7565b50600161007182826101a7565b5050506001600160a01b0381166100a257604051631e4fbdf760e01b81526000600482015260240160405180910390fd5b6100ab816100b6565b506000600855610265565b600780546001600160a01b038381166001600160a01b0319831681179093556040519116919082907f8be0079c531659141344cd1fd0a4f28419497f9722a3daafe3b4186f6b6457e090600090a35050565b634e487b7160e01b600052604160045260246000fd5b600181811c9082168061013257607f821691505b60208210810361015257634e487b7160e01b600052602260045260246000fd5b50919050565b601f8211156101a257806000526020600020601f840160051c8101602085101561017f5750805b601f840160051c820191505b8181101561019f576000815560010161018b565b50505b505050565b81516001600160401b038111156101c0576101c0610108565b6101d4816101ce845461011e565b84610158565b6020601f82116001811461020857600083156101f05750848201515b600019600385901b1c1916600184901b17845561019f565b600084815260208120601f198516915b828110156102385787850151825560209485019460019092019101610218565b50848210156102565786840151600019600387901b60f8161c191681555b50505050600190811b01905550565b611443806102746000396000f3fe608060405234801561001057600080fd5b50600436106101165760003560e01c8063715018a6116100a2578063b88d4fde11610071578063b88d4fde14610239578063c87b56dd1461024c578063d082e3811461025f578063e985e9c514610268578063f2fde38b1461027b57600080fd5b8063715018a6146102055780638da5cb5b1461020d57806395d89b411461021e578063a22cb4651461022657600080fd5b806323b872dd116100e957806323b872dd1461019857806342139931146101ab57806342842e0e146101cc5780636352211e146101df57806370a08231146101f257600080fd5b806301ffc9a71461011b57806306fdde0314610143578063081812fc14610158578063095ea7b314610183575b600080fd5b61012e610129366004610f09565b61028e565b60405190151581526020015b60405180910390f35b61014b6102b9565b60405161013a9190610f76565b61016b610166366004610f89565b61034b565b6040516001600160a01b03909116815260200161013a565b610196610191366004610fbe565b610374565b005b6101966101a6366004610fe8565b610383565b6101be6101b93660046110b5565b610413565b60405190815260200161013a565b6101966101da366004610fe8565b610451565b61016b6101ed366004610f89565b610471565b6101be610200366004611117565b61047c565b6101966104c4565b6007546001600160a01b031661016b565b61014b6104d8565b610196610234366004611132565b6104e7565b61019661024736600461116e565b6104f2565b61014b61025a366004610f89565b61050a565b6101be60085481565b61012e6102763660046111ea565b61061b565b610196610289366004611117565b610649565b60006001600160e01b03198216632483248360e11b14806102b357506102b382610687565b92915050565b6060600080546102c89061121d565b80601f01602080910402602001604051908101604052809291908181526020018280546102f49061121d565b80156103415780601f1061031657610100808354040283529160200191610341565b820191906000526020600020905b81548152906001019060200180831161032457829003601f168201915b5050505050905090565b6000610356826106d7565b506000828152600460205260409020546001600160a01b03166102b3565b61037f828233610710565b5050565b6001600160a01b0382166103b257604051633250574960e11b8152600060048201526024015b60405180910390fd5b60006103bf83833361071d565b9050836001600160a01b0316816001600160a01b03161461040d576040516364283d7b60e01b81526001600160a01b03808616600483015260248201849052821660448201526064016103a9565b50505050565b600061041d610816565b60085461042a8482610843565b610434818461085d565b6008805490600061044483611257565b9091555090949350505050565b61046c838383604051806020016040528060008152506104f2565b505050565b60006102b3826106d7565b60006001600160a01b0382166104a8576040516322718ad960e21b8152600060048201526024016103a9565b506001600160a01b031660009081526003602052604090205490565b6104cc610816565b6104d660006108ad565b565b6060600180546102c89061121d565b61037f3383836108ff565b6104fd848484610383565b61040d338585858561099e565b6060610515826106d7565b506000828152600660205260408120805461052f9061121d565b80601f016020809104026020016040519081016040528092919081815260200182805461055b9061121d565b80156105a85780601f1061057d576101008083540402835291602001916105a8565b820191906000526020600020905b81548152906001019060200180831161058b57829003601f168201915b5050505050905060006105c660408051602081019091526000815290565b905080516000036105d8575092915050565b81511561060a5780826040516020016105f292919061127e565b60405160208183030381529060405292505050919050565b61061384610ac9565b949350505050565b6001600160a01b03918216600090815260056020908152604080832093909416825291909152205460ff1690565b610651610816565b6001600160a01b03811661067b57604051631e4fbdf760e01b8152600060048201526024016103a9565b610684816108ad565b50565b60006001600160e01b031982166380ac58cd60e01b14806106b857506001600160e01b03198216635b5e139f60e01b145b806102b357506301ffc9a760e01b6001600160e01b03198316146102b3565b6000818152600260205260408120546001600160a01b0316806102b357604051637e27328960e01b8152600481018490526024016103a9565b61046c8383836001610b3e565b6000828152600260205260408120546001600160a01b039081169083161561074a5761074a818486610c44565b6001600160a01b0381161561078857610767600085600080610b3e565b6001600160a01b038116600090815260036020526040902080546000190190555b6001600160a01b038516156107b7576001600160a01b0385166000908152600360205260409020805460010190555b60008481526002602052604080822080546001600160a01b0319166001600160a01b0389811691821790925591518793918516917fddf252ad1be2c89b69c2b068fc378daa952ba7f163c4a11628f55a4df523b3ef91a4949350505050565b6007546001600160a01b031633146104d65760405163118cdaa760e01b81523360048201526024016103a9565b61037f828260405180602001604052806000815250610ca8565b600082815260066020526040902061087582826112f4565b506040518281527ff8e1a15aba9398e019f0b49df1a4fde98ee17ae345cb5f6b5e2c27f5033e8ce79060200160405180910390a15050565b600780546001600160a01b038381166001600160a01b0319831681179093556040519116919082907f8be0079c531659141344cd1fd0a4f28419497f9722a3daafe3b4186f6b6457e090600090a35050565b6001600160a01b03821661093157604051630b61174360e31b81526001600160a01b03831660048201526024016103a9565b6001600160a01b03838116600081815260056020908152604080832094871680845294825291829020805460ff191686151590811790915591519182527f17307eab39ab6107e8899845ad3d59bd9653f200f220920489ca2b5937696c31910160405180910390a3505050565b6001600160a01b0383163b15610ac257604051630a85bd0160e11b81526001600160a01b0384169063150b7a02906109e09088908890879087906004016113b3565b6020604051808303816000875af1925050508015610a1b575060408051601f3d908101601f19168201909252610a18918101906113f0565b60015b610a84573d808015610a49576040519150601f19603f3d011682016040523d82523d6000602084013e610a4e565b606091505b508051600003610a7c57604051633250574960e11b81526001600160a01b03851660048201526024016103a9565b805160208201fd5b6001600160e01b03198116630a85bd0160e11b14610ac057604051633250574960e11b81526001600160a01b03851660048201526024016103a9565b505b5050505050565b6060610ad4826106d7565b506000610aec60408051602081019091526000815290565b90506000815111610b0c5760405180602001604052806000815250610b37565b80610b1684610cc0565b604051602001610b2792919061127e565b6040516020818303038152906040525b9392505050565b8080610b5257506001600160a01b03821615155b15610c14576000610b62846106d7565b90506001600160a01b03831615801590610b8e5750826001600160a01b0316816001600160a01b031614155b8015610ba15750610b9f818461061b565b155b15610bca5760405163a9fbf51f60e01b81526001600160a01b03841660048201526024016103a9565b8115610c125783856001600160a01b0316826001600160a01b03167f8c5be1e5ebec7d5bd14f71427d1e84f3dd0314c0f7b2291e5b200ac8c7c3b92560405160405180910390a45b505b5050600090815260046020526040902080546001600160a01b0319166001600160a01b0392909216919091179055565b610c4f838383610d53565b61046c576001600160a01b038316610c7d57604051637e27328960e01b8152600481018290526024016103a9565b60405163177e802f60e01b81526001600160a01b0383166004820152602481018290526044016103a9565b610cb28383610db6565b61046c33600085858561099e565b60606000610ccd83610e1b565b600101905060008167ffffffffffffffff811115610ced57610ced611025565b6040519080825280601f01601f191660200182016040528015610d17576020820181803683370190505b5090508181016020015b600019016f181899199a1a9b1b9c1cb0b131b232b360811b600a86061a8153600a8504945084610d2157509392505050565b60006001600160a01b038316158015906106135750826001600160a01b0316846001600160a01b03161480610d8d5750610d8d848461061b565b806106135750506000908152600460205260409020546001600160a01b03908116911614919050565b6001600160a01b038216610de057604051633250574960e11b8152600060048201526024016103a9565b6000610dee8383600061071d565b90506001600160a01b0381161561046c576040516339e3563760e11b8152600060048201526024016103a9565b60008072184f03e93ff9f4daa797ed6e38ed64bf6a1f0160401b8310610e5a5772184f03e93ff9f4daa797ed6e38ed64bf6a1f0160401b830492506040015b6d04ee2d6d415b85acef81000000008310610e86576d04ee2d6d415b85acef8100000000830492506020015b662386f26fc100008310610ea457662386f26fc10000830492506010015b6305f5e1008310610ebc576305f5e100830492506008015b6127108310610ed057612710830492506004015b60648310610ee2576064830492506002015b600a83106102b35760010192915050565b6001600160e01b03198116811461068457600080fd5b600060208284031215610f1b57600080fd5b8135610b3781610ef3565b60005b83811015610f41578181015183820152602001610f29565b50506000910152565b60008151808452610f62816020860160208601610f26565b601f01601f19169290920160200192915050565b602081526000610b376020830184610f4a565b600060208284031215610f9b57600080fd5b5035919050565b80356001600160a01b0381168114610fb957600080fd5b919050565b60008060408385031215610fd157600080fd5b610fda83610fa2565b946020939093013593505050565b600080600060608486031215610ffd57600080fd5b61100684610fa2565b925061101460208501610fa2565b929592945050506040919091013590565b634e487b7160e01b600052604160045260246000fd5b60008067ffffffffffffffff84111561105657611056611025565b50604051601f19601f85018116603f0116810181811067ffffffffffffffff8211171561108557611085611025565b60405283815290508082840185101561109d57600080fd5b83836020830137600060208583010152509392505050565b600080604083850312156110c857600080fd5b6110d183610fa2565b9150602083013567ffffffffffffffff8111156110ed57600080fd5b8301601f810185136110fe57600080fd5b61110d8582356020840161103b565b9150509250929050565b60006020828403121561112957600080fd5b610b3782610fa2565b6000806040838503121561114557600080fd5b61114e83610fa2565b91506020830135801515811461116357600080fd5b809150509250929050565b6000806000806080858703121561118457600080fd5b61118d85610fa2565b935061119b60208601610fa2565b925060408501359150606085013567ffffffffffffffff8111156111be57600080fd5b8501601f810187136111cf57600080fd5b6111de8782356020840161103b565b91505092959194509250565b600080604083850312156111fd57600080fd5b61120683610fa2565b915061121460208401610fa2565b90509250929050565b600181811c9082168061123157607f821691505b60208210810361125157634e487b7160e01b600052602260045260246000fd5b50919050565b60006001820161127757634e487b7160e01b600052601160045260246000fd5b5060010190565b60008351611290818460208801610f26565b8351908301906112a4818360208801610f26565b01949350505050565b601f82111561046c57806000526020600020601f840160051c810160208510156112d45750805b601f840160051c820191505b81811015610ac257600081556001016112e0565b815167ffffffffffffffff81111561130e5761130e611025565b6113228161131c845461121d565b846112ad565b6020601f821160018114611356576000831561133e5750848201515b600019600385901b1c1916600184901b178455610ac2565b600084815260208120601f198516915b828110156113865787850151825560209485019460019092019101611366565b50848210156113a45786840151600019600387901b60f8161c191681555b50505050600190811b01905550565b6001600160a01b03858116825284166020820152604081018390526080606082018190526000906113e690830184610f4a565b9695505050505050565b60006020828403121561140257600080fd5b8151610b3781610ef356fea2646970667358221220c495ace2380721d7d8707221717f6f8f27282fa2a6a69467492a904813cf471964736f6c634300081c0033",
  "linkReferences": {},
  "deployedLinkReferences": {}
}